7390360000104000588900322                04000588900322       EPRIME BUSINESS SOLUTIONS              00000068920DR                     031725
73907900002928801200030                  06682949480327      TANATAN JULIET MONTOYA                  00000023892CS                     031725
73907900003926103200036                  06682130500325      JULIETA ALAGBRE                         00000191561CS                     031725
73943800004931603200225                  06684116930325      METROBANK GATUSLAO                      00000047460CKMETROP  OSR4380013663031725
