73907900001924401200098                  06681568390319      PROXIMO JR JULIO M                      00000060135CS                     031425
73907900002925801200067                  06681998480319      CUSTODIO FABELLA                        00000073759CS                     031425
73907900003923701200117                  06681326700319      CELESTE P LIM                           00000024010CS                     031425
73907900004926201200521                  06682162030319      RONNIE VILLAFUERTE                      00000070766CS                     031425
73907900005931301200232                  06683954690325      SY EDGAR                                00000024619CS                     031425
73907900006926003200247                  06682096300319      VICJUAN RESOURCES INC  NAQUILAN  SALLY  00000047585CS                     031425
73943800007931603200233                  06684117740325      GUANZON M VELEZ                         00000047585DR                     031425
73965300008924301200355                  06690274550319      CANIEDO BRODIT LEASING CORP             00000024545CS                     031425
73965300009924301200348                  06689577500319      CANIEDO BRODIT LEASING CORP             00000023865CS                     031425
73965300010924001200344                  06688764670319      SIA NANCY TUSIAP                        00000024700CS                     031425
73989700011030602000480                  00105653880325      LATUNIO MELBIN                          00000052200CS                     031425
