73900200001932701200089                  06684526320327      FELICITAS JORNADAL                      00000099024CKBDO     LOR0000787777031125
73900200002934801200164                  06685356430327      TACSAGON MICHAEL                        00000037148CS                     031125
73900200003934801200163                  06685356350327      TACSAGON EMMA                           00000192551CS                     031125
73900200004934801200161                  06685356190327      ASPAN HELEN                             00000024684CS                     031125
73907900005923501200241                  06681295050319      CU RAMON                                00000023892CS                     031125
73907900006923501200238                  06681294750319      CU RAMONA S                             00000023892CS                     031125
73907900007924801200201                  06681718700319      MARIA LLANTO V LO                       00000141922CKMETROP  OSR0002815581031125
73907900008926003200066                  06682084720319      METROPOLITAN BANK AND TRUST CO          00000719387CKMETROP  OSR0790051132031125
