00260026383374250406170747777700000001000644160420***************88860402263402440369000360870000012012CAMILO MIGUEL TOLENTINO DOMING5                
00260026187221250406171255777700000001003267550420***************88860402263402445603000374320000012012MARITESS BELARMINO ROCERO     5                
00260026094001250406205831474100000000003833920424***************18780474267474906740000681020000012012JABILYN OSABEL CRUZ           1                
00260026753791250406054433352100000000007797840420***************18890352263352275191000312550000012012REYNALDO CORTEZ FOJAS         1                
00260026873953250406102007777700000000004331440417***************88860494263494541484001618470000012012JEFFREY DUQUE PACREM          5                
00260026881590250406122324777700000000004843850417***************88860660263660092375001035160000012012DEMETRIO QUISANO QUADRA III   5                
00440044583505250406201403999800000000001140140424***************77770000099200010171001005000000000012Jose B  Maroma Jr             5                
00140014381683250406180315515200000000104900000417***************37610000000007213761000800000000000012                              5                
00260026233686250406093332777700000001002146630420***************88860036263036840049000373000000012012EMETERIO JEFFREY KALAW ROXAS  5                
00260026332839250406085511777700000001008085391231***************88860336263336952671008500000000012012ANALIZA DELA CRUZ HAGUNOS OR  5                
00140014461516250406182000515200000001002607110316***************70010000391547587001001232880000000012                              5                
00140014069411250406093512515200000000104176991016***************31700000000007413170001133000000000012                              5                
00140014788765250406121430515200000000003024300412***************71610000000060627161000737360000000012                              5                
00140014448777250406181717515200000001007751930416***************70010000391547587001000477000000000012                              5                
00140014867123250406161414515200000000003538920420***************88030000000003718803000694320000000012                              5                
00140014845625250406083833515200000001005036730321***************90650000000021659065000857690000000012                              5                
00140014165042250406133811515200000000039324350422***************16610000000009471661000175250000000012                              5                
00350035335701250406114623111200000000000800120421***************00000000003517015287001110810000000012                              6                
00350035379145250406060045111200000000000552710413***************00000000003407009311000704730000000012                              6                
00350035429015250406121423111200000001005426280417***************00000000000255016210002304000000000012                              6                
00140014039666250406092806515200000000003985940417***************56440000000004385644000600000000000012                              5                
00140014576314250406112910515200000001000509380413***************43610000900000854361002600000000000012                              5                
00350035264677250406220034111200000000005279040412***************00000000003757008350000958340000000012                              6                
00620062000000250406181250000000000001004747970420***************04200000200002782811002146000000000012lourdesona                    5                
00260026023290250406085846777700000001008085471231***************88860336263336952671008500000000012012ANALIZA DELA CRUZ HAGUNOS OR  5                
00350035849542250406142339111200000000002811660412***************00000000000237119096000264300000000012                              6                
00350035742522250406134915111200000000039396260411***************00000000000597120460001015220000000012                              6                
00060006066703250404140405000000000001005137410416***************04160000012914438001000330960000000012                              5                
00350035048318250406102425111200000001006405060422***************00000000001975041634001211000000000012                              6                
00620062000000250406215328000000000001005148880415***************04150000200052834828000306700000000012ChilledSimon                  5                
9999000099999925040700000099999999999999999999999999999999999999999990000000000000030004241995          012                                            
