73907900001925001200056                  06681767320325      ANG LINA 3RD FLOOR                      00000053520CS                     030725
73907900002926003200064                  06682084640319      KING T UNITED HOUSE                     00000057586CKEWB     LOR0000164940030725
7394680000321031714443                   07110144821231      JOPETH MIRAFLOR                         00000149900DR                     030725
73946800004201702600010                  02001883790322      JOPETH MIRAFLOR                         00000035550DR                     030725
