D490140000106431784800331                023538              MIKEE FRANCISCO                         00000031248IB           106044    031325
D4901400002038902400850                  10474322            JESHER ARGYLE TALLAR                    00000030800IB           952166    03132509566811644
D4902600003130202900100                  130202900100        ARCIN AILEEN T                          00000031400CS                     031325
D490660000400104826870312                57768               KEVIN TUAZON                            00000169600IB           457929    031325
D490660000500001315710314                11964               MARIA EILEEN DIRECTO                    00000029185IB           338569    03132509189075811
D490660000606027374260324                66798               ANNE MARINEL NUNEZ                      00000047545IB           835961    031325
D490660000706070709850408                027034              FE BALAG                                00000021667IB           402111    03132509975085877
D490660000800004299960313                39651               ROEL CONCEPCION                         00000375727IB           293562    031325
D490660000906560582680331                811705300035        KAREN CHRISTINE CARA                    00000317882IB           533323    03132509999907988
D490660001006431521200331                023384              RONNIE SARMIENTO                        00000081803IB           167130    031325
D490660001106496012610315                53516               LEO ASUNCION                            00001501380IB           576538    031325
D490660001206022258590318                06582               LAIE LEI PASCUAL                        00000023828IB           600590    031325
D490660001306553                         06022258240318      LAIE LEI PASCUAL                        00000042550IB           264495    031325
D490660001406028180000318                74167               LAIE LEI PASCUAL                        00000023828IB           541912    031325
D490660001506022165900318                33206               LAIE LEI PASCUAL                        00000023828IB           127763    031325
D490660001600000438930313                4519                PATRICIA MAE DECENA                     00000083563IB           366591    031325
D490660001709472988161                   06024349460324      ROWENA CALILUNG                         00000023828IB           741455    031325
D490660001809472988161                   06024350200324      ROWENA CALILUNG                         00000053579IB           753739    031325
D490660001906431554050228                023671              RONNIE SARMIENTO                        00000031248IB           213687    031325
D490660002000003312010316                015500200220        ALLISANDRA ISABEL BI                    00000205155IB           930438    031325
D4907800021220700320505                  06110213300331      JOANNA MARIE HONORIC                    00000071142IB           144836    031325
D4910200022533401200003                  05300910981130      MAUREEN SEBASTIAN                       00000057600IB           130699    031325
D491180002306032961210331                1                   HERMILA B ROA                           00000035200CS                     031325
D491430002406133678620331                1                   FRANCISCO LINDA                         00000063500CS                     031325
D491430002506131338450331                1                   TAN REMEGIA                             00000121905CS                     031325
D491430002606131349810331                06131349810331      NATIVE LUMBER 3                         00000162523CS                     031325
D491430002706131339690331                06131339690331      TAN REMEGIA 2                           00000125784CS                     031325
D491430002806135318240331                06135318240331      TAN REMEGIA C 101                       00000014501CS                     031325
D491430002906135318160331                06135318160331      TAN REMEGIA V B 102                     00000018073CS                     031325
D491430003006135318080331                06135318080331      TAN REMEGIA V A 103                     00000013941CS                     031325
D49143000310613551744331                 0613551744331       TAN REMEGIA V 104                       00000014501CS                     031325
D491430003206135528560331                06135528560331      TAN REMEGIA V 105                       00000018073CS                     031325
D491430003306135528640331                06135528640331      TAN REMEGIA V 106                       00000015061CS                     031325
D491430003406135528720331                06135528720331      TAN REMEGIA V 107                       00000024097CS                     031325
D491430003506135528990331                06135528990331      TAN REMEGIA V 108                       00000014501CS                     031325
D491430003606135529020331                06135529020331      TAN REMETGIA V 109                      00000014221CS                     031325
D491430003706135529100331                06135529100331      TAN REMEGIA V 110                       00000039958CS                     031325
D491430003806135529290331                06135529290331      TAN REMEGIA V 201                       00000014501CS                     031325
D491430003906135529370331                06135529370331      TAN REMEGIA V 202                       00000014501CS                     031325
D491430004006135529450331                06135529450331      TAN REMEGIA V 203                       00000015061CS                     031325
D491430004106135529530331                06135529530331      TAN REMEGIA V 205                       00000018073CS                     031325
D491430004206135529880331                06135529880331      TAN REMEGIA V 206                       00000030121CS                     031325
D491430004306135529960331                06135529960331      TAN REMEGIA V 207                       00000014781CS                     031325
D491430004406135529610331                06135529610331      TAN REMEGIA V 205                       00000018073CS                     031325
D491430004506135530030331                06135530030331      TAN REMEGIA V 208                       00000014501CS                     031325
D491430004606135530110331                06135530110331      TAN REMEGIA V 209                       00000015061CS                     031325
D491430004706135530380331                06135530380331      TAN REMEGIA V 210                       00000013661CS                     031325
D491430004806135530460331                06135530460331      TAN REMEGIA V 301                       00000024097CS                     031325
D491430004906135530540331                06135530540331      TAN REMEGIA V 302                       00000013941CS                     031325
D491430005006135530620331                06135530620331      TAN REMEGIA V 303                       00000014781CS                     031325
D491430005106135530700331                06135530700331      TAN REMEGIA V 304                       00000021085CS                     031325
D491430005206135530890331                06135530890331      TAN REMEGIA V 305                       00000014221CS                     031325
D491430005306135530970331                06135530970331      TAN REMEGIA 306                         00000014501CS                     031325
D491430005406135531000331                06135531000331      TAN REMEGIA V 307                       00000013941CS                     031325
D491430005506135531190331                06135531190331      TAN REMEGIA V 308                       00000014501CS                     031325
D491430005606135531270331                06135531270331      TAN REMEGIA 309                         00000015061CS                     031325
D491430005706135531350331                06135531350331      TAN REMEGIA 310                         00000013661CS                     031325
D491430005806135840060331                06135840060331      TAN REMEGIA V UNIT 1 1ST FLR            00000089673CS                     031325
D491430005906136015710331                06136015710331      TAN REMEGIA V UNIT 2 1ST FLR            00000013661CS                     031325
D491430006006136017680331                06136017680331      TAN REMEGIA V UNIT 3 1ST FLR            00000013661CS                     031325
D491430006106136017760331                06136017760331      TAN REMEGIA V UNIT 4 1ST FLR            00000013661CS                     031325
D491430006206136017840331                06136017840331      TAN REMEGIA V UNIT 5 1ST FLR            00000014781CS                     031325
D491430006306136017920331                06136017920331      TAN REMEGIA V UNIT 6 1ST FLR            00000013661CS                     031325
D491430006406136018060331                06136018060331      TAN REMEGIA V UNIT 7 1ST FLR            00000013941CS                     031325
D491430006506136018140331                06136018140331      TAN REMEGIA V UNIT 8 1ST FLR            00000013661CS                     031325
D491430006606136018220331                06136018220331      TAN REMEGIA V UNIT 9 1ST FLR            00000013661CS                     031325
D491430006706136018300331                06136018300331      TAN REMEGIA V UNIT 10 1ST FLR           00000013661CS                     031325
D491430006806136018570331                06136018570331      TAN REMEGIA V UNIT 11 2ND FLR           00000013661CS                     031325
D491430006906136018650331                06136018650331      TAN REMEGIA V UNIT 12 2ND FLR           00000013661CS                     031325
D491430007006136018730331                06136018730331      TAN REMEGIA V UNIT 13 2ND FLR           00000013661CS                     031325
D491430007106136018810331                06136018810331      TAN REMEGIA V UNIT 14 2ND FLR           00000013661CS                     031325
D491430007206136019030331                06136019030331      TAN REMEGIA V UNIT 15 2ND FLR           00000013661CS                     031325
D491430007306136019110331                06136019110331      TAN REMEGIA V UNIT 16 2ND FLR           00000013661CS                     031325
D491430007406136019380331                06136019380331      TAN REMEGIA V UNIT 17 2ND FLR           00000013661CS                     031325
D491430007506136019460331                06136019460331      TAN REMEGIA V UNIT 18 2ND FLR           00000013661CS                     031325
D491430007606136019540331                06136019540331      TAN REMEGIA V UNIT 19 2ND FLR           00000013661CS                     031325
D491430007706136019620331                06136019620331      TAN REMEGIA V UNIT 20 2ND FLR           00000013661CS                     031325
D491430007806136019700331                06136019700331      TAN REMEGIA V UNIT 21 2ND FLR           00000013661CS                     031325
D491430007906136019890331                06136019890331      TAN REMEGIA V UNIT 22 3RD FLR           00000013661CS                     031325
D491430008006136019970331                06136019970331      TAN REMEGIA V UNIT 23 3RD FLR           00000014501CS                     031325
D491430008106136020040331                06136020040331      TAN REMEGIA V UNIT 24 3RD FLR           00000013661CS                     031325
D491430008206136020120331                06136020120331      TAN REMEGIA V UNIT 25 3RD FLR           00000013661CS                     031325
D491430008306136020200331                06136020200331      TAN REMEGIA V UNIT 26 3RD FLR           00000039958CS                     031325
D491430008406136020470331                06136020470331      TAN REMEGIA V UNIT 27 3RD FLR           00000013661CS                     031325
D491430008506136020550331                06136020550331      TAN REMEGIA V UNIT 528 3RD FLR          00000013661CS                     031325
D491430008606136020630331                06136020630331      TAN REMEGIA V UNIT 29 3RD FLR           00000013661CS                     031325
D491430008706136020710331                06136020710331      TAN REMEGIA V UNIT 30 3RD FLR           00000013661CS                     031325
D491430008806132794240331                004471              SEVILLA BERANA                          00000014501IB           484089    031325
D491430008906133386680331                004317              MA. FRANCEZCA RAMOS                     00000084448IB           373581    031325
D491430009006133384470331                004298              MA. FRANCEZCA RAMOS                     00000059632IB           210785    031325
D491710009106141058020331                013730              ANNAMAY ESTRADA                         00000033253IB           337868    03132509178741005
D492260009206135870640331                310703200161        MANILA KLEAN FUEL CORPORATION           00001949460CKMETROP  OSR2593599255031325
D492260009306512305340331                631100320102        PHOENIX SOUTHERN PETROLEUM CORP         00000283865CKMETROP  OSR2593599254031325
D492660009406531181380331                06531181380331      USA 888 GASOLINE STATION                00000048384CKUB      LOR0006929450031325
D4930300095858701100312                  06615890550630      UBANA PLASTIC AND ME                    00000047634IB           148326    031325
D49308000960642018471                    0642018471          CEBU OVEN MAGIC CORPORATION             00000100982CKBDO     LOR0003147037031325
D49308000970570038422                    00570038422         KOOL KITCHEN MANAGEMENT CORP            00000094560CKBDO     LOR0003165355031325
D493080009806592132990331                06592132990331      CEBU OVEN MAGIC CORPORATION             00000061290CKBDO     LOR0003147038031325
D4931200099511001200535                  06164300420415      GERDA NIEL ABALORA                      00000050400IB           375898    031325
D4934500100115600300220                  01000018130220      MARLEEN MENDOZA                         00000282500IB           553967    03132509063283099
D4934900101000800400170                  00000204860722      MEDY SANCHEZ                            00000032630IB           283807    031325
D494080010206470766230409                06470766230409      MOTORJOY DEPOT INC                      00000049200CS                     031325
D494080010306470629240407                064706529240407     UNIVERSITY OF MINDANAO PANABO           00000622899CS                     031325
D494080010406470846850403                06470846850403      GREDU  ELEM SCHOOL                      00000207471CKLANDBA  LOR0001767312031325
D494080010506471438350406                06471438350406      UNIVERSITY OF MINDANAO COVERED COURT GYM00000059009CS                     031325
D494080010606470847070403                06470847070403      GREDU ELE M SCHOOL                      00000247961CKLANDBA  LOR0001767314031325
D494080010706470846930403                06470846930403      GREDU ELEM SCHOOL                       00000191900CKLANDBA  LOR0001767313031325
D494280010806350059630331                009751              LESLIE SAIR VILLANUEVA                  00000067078CS                     031325
D494320010906492896590410                06492896590410      MAY QUISAY                              00000324969CS                     031325
D494320011006496653240410                06496653240410      BRYLLE FRANCIS QUISAY                   00000033190CS                     031325
D494320011106495395660410                06495395660410      BRYLLE FRANCIS QUISAY                   00000049896CS                     031325
D494320011206490552320403                06490552320403      FELIX G CORITANA                        00000883194CS                     031325
D494320011306490554960403                06490554960403      YKS REALTY DEVELOPMENT                  00000050000CS                     031325
D494320011406490800080405                06490800080405      ROMULO SALAZAR                          00000883194CS                     031325
D494320011506497686110403                06497686110403      FRANCIS KENNETH DY                      00000317526CKMETROP  OSR4321909607031325
D494320011606490800320405                06490800320405      ROEL TANEO                              00000503600CKMETROP  OSR4321909606031325
D494380011706684120960325                06684120960325      MARY GRACE CHUA                         00000047585IB           993458    0313250344350499
D4943800118085014                        06685850710527      BENJIE MORENO                           00000043100IB           076684    03132509236452977
D4946100119506201000881                  06172557160331      JAZZEL LAYUG                            00000126825IB           851689    03132509650538336
D4947400120025701700180                  00040684590313      MICHEL NIEVA                            00000121300IB           346152    03132509298535760
D495070012106136011480331                06136011480331      GOLDEN ARCHES DEVELOPMENT CORPORATION   00003059929CKMETROP  OSR5070012703031325
D495070012206132267970331                06132267970331      BATANGAS CITY EAST ELEMENTARY SCHOOL    00001266072CKLANDBA  LOR0002105030031325
D495070012306132268350331                06132268350331      BATANGAS CITY EAST ELEMENTARY SCHOOL    00001234482CKLANDBA  LOR0002105032031325
D495070012406132268270331                06132268270331      BATANGAS CITY EAST ELEMENTARY SCHOOL    00002656032CKLANDBA  LOR0002105031031325
D4952300125691701200289                  06341441610307      JOYCE ANN VENDIOLA                      00000036400IB           759473    031325
D495260012606401643060411                036129              JOFFREY IBANA                           00000028000IB           416213    03132509273017867
D4954600127930203200040                  06683482070325      NEXTGEN CORPORATION                     00000142551IB           155648    031325
D4954600128920801200041                  920801200041        AGRAVANTE CESAR SR                      00000051945CS                     031325
D495660012905001208040331                05001208040331      ANGELA BARBER                           00000075327IB           354367    031325
D4958800130315701200176                  06135685740331      AIZEL JOY BUELA                         00000013661IB           446206    0313259912437423
D4958800131315701200173                  06135606380331      AIZEL JOY BUELA                         00000013661IB           306510    0313259912437423
D49612001326104-0120-0133                06242397040331      KIRSTEN ALEXIE CASCO                    00000021013IB           634484    03132509476051387
D4963400133027700400480                  027700400480        RACHELLE MORAL                          00000219047CS                     031325
D496470013405302701031231                05302701031231      JONEIL CAPULONG                         00000032893IB           984021    031325
D4965800135656701200588                  06293477260331      PACITA MADLAMBAYAN                      00000021504CS                     031325
D4965800136656701200588                  06292224350331      PACITA D MADLAMBAYAN                    00001912974CS                     031325
D496600013700001427860314                13332               ZENAIDA GARCIA                          00000068401IB           258640    031325639761124023
