H UNIONBANK OF THE PHILIPPINES     EPRIME BUSINESS SOLUTIONS INC              03202025
3452002510016551UNIONBANK 00000INT         UB931085 032025000238Merced G Casingcasing                                                                               04000614170322                                    04164                                                                                                                                                                                                                                                                                                                                                                                                           000000033000DB109453687581            
3452002510016551UNIONBANK 00000INT         UB95321  032025065831KENNETH DOLORITO                                                                                    04000541860322                                    03764                                                                                                                                                                                                                                                                                                                                                                                                           000000049500DB109426297652            
3452002510016551UNIONBANK 00000INT         UB155217 032025082925LOVELYN RAMOS TADAY                                                                                 00002621880321                                    26152                                                                                                                                                                                                                                                                                                                                                                                                           000000074726DB109427878865            
3452002510016551UNIONBANK 00000INT         UB171882 032025085000ACCOUNTS PAYABLE-MERCHANT (STRAIGHT)                                                                06025673500325                                    37296                                                                                                                                                                                                                                                                                                                                                                                                           000000154292DB322505040444            
3452002510016551UNIONBANK 00000INT         UB189596 032025091049JOAN BOLOCANO ROA                                                                                   03000879630322                                    04205                                                                                                                                                                                                                                                                                                                                                                                                           000000023000DB109329564573            
3452002510016551UNIONBANK 00000INT         UB216506 032025093855GEMMA JOYCE SALANGA DEL ROSARIO                                                                     07100502211231                                    2025156948                                                                                                                                                                                                                                                                                                                                                                                                      000000149900DB109655964824            
3452002510016551UNIONBANK 00000INT         UB237577 032025095904LEMUEL ORZALES RESOGENIA                                                                            06122209060405                                    039695                                                                                                                                                                                                                                                                                                                                                                                                          000000035620DB109672342420            
3452002510016551UNIONBANK 00000INT         UB337461 032025112215ACCOUNTS PAYABLE-MERCHANT (STRAIGHT)                                                                06124286980407                                    039708                                                                                                                                                                                                                                                                                                                                                                                                          000000019700DB322505040444            
3452002510016551UNIONBANK 00000INT         UB639050 032025155515JAYA SAMUDIO                                                                                        06612062530331                                    177019                                                                                                                                                                                                                                                                                                                                                                                                          000000032789DB109424563355            
3452002510016551UNIONBANK 00000INT         UB753049 032025173820MICHELLE ANGELA CRUZ TORRALBA                                                                       06712947161231                                    2818006007                                                                                                                                                                                                                                                                                                                                                                                                      000000820000DB109321809927            
3452002510016551UNIONBANK 00000INT         UB767083 032025175216MARY JOY BALLESTEROS FRANCO                                                                         02500130760322                                    06783                                                                                                                                                                                                                                                                                                                                                                                                           000000107300DB109487994873            
3452002510016551UNIONBANK 00000INT         UB769819 032025175502CHARMAINE PAUNDOG                                                                                   02100006230322                                    05040                                                                                                                                                                                                                                                                                                                                                                                                           000000018500DB109430178953            
3452002510016551UNIONBANK 00000INT         UB830939 032025185516BENSON MARTIN RIZO MIRA                                                                             06134495910331                                    004266                                                                                                                                                                                                                                                                                                                                                                                                          000000125784DB109657035105            
3452002510016551UNIONBANK 00000INT         UB850204 032025191443LOVELYN RAMOS TADAY                                                                                 00002655860321                                    27037                                                                                                                                                                                                                                                                                                                                                                                                           000000078459DB109427878865            
3452002510016551UNIONBANK 00000INT         UB899508 032025200818MARK GERALD I ORENSE                                                                                00003526910320                                    76364                                                                                                                                                                                                                                                                                                                                                                                                           000000061949DB109704523360            
3452002510016551UNIONBANK 00000INT         UB900869 032025200922GIRLIE MACAYA ESPIELAGO                                                                             02001615780322                                    00629                                                                                                                                                                                                                                                                                                                                                                                                           000000038160DB109659744740            
T                                                                                                                                000001822679 000016                                               
