H UNIONBANK OF THE PHILIPPINES     PRIMEWATER INFRASTRUCTURE CORP             03192025
3454102510036931UNIONBANK 00000162         S9819627 03192512405301005651720321                                                                                      44481                                                                                                                                                                                                                                                                                                                                                                                                                                                             000000051872LC                        
3454102510036931UNIONBANK 00000INT         UB886876 031925000941ABCEDEE YLAGAN FERRER                                                                               05101828960403                                    041694                                                                                                                                                                                                                                                                                                                                                                                                          000000035073DB109654499421            
3454102510036931UNIONBANK 00000INT         UB888458 031925001346ACCOUNTS PAYABLE-MERCHANT (STRAIGHT)                                                                06070657950409                                    026939                                                                                                                                                                                                                                                                                                                                                                                                          000000049532DB322505040444            
3454102510036931UNIONBANK 00000INT         UB892064 031925002612MIGUEL JUANGCO LAYUGAN                                                                              06175812490331                                    100                                                                                                                                                                                                                                                                                                                                                                                                             000000037846DB109660921303            
3454102510036931UNIONBANK 00000INT         UB893045 031925002831ROSEMARIE T FERNANDEZ                                                                               06112762070331                                    026174                                                                                                                                                                                                                                                                                                                                                                                                          000000035571DB109350396097            
3454102510036931UNIONBANK 00000INT         UB895979 031925003849ISABELLA PALO GIMAO                                                                                 06626398700331                                    236502                                                                                                                                                                                                                                                                                                                                                                                                          000000036947DB109320311165            
3454102510036931UNIONBANK 00000INT         UB13111  031925012957JAN ROBIN ROBLES                                                                                    06615704190331                                    169354                                                                                                                                                                                                                                                                                                                                                                                                          000000039100DB109426796673            
3454102510036931UNIONBANK 00000INT         UB15365  031925013941SPENCER L CHANG                                                                                     06615034950331                                    186111                                                                                                                                                                                                                                                                                                                                                                                                          000000058649DB101338277244            
3454102510036931UNIONBANK 00000INT         UB19355  031925015302KRISTIAN ED GEONANGA                                                                                06624564900331                                    219696                                                                                                                                                                                                                                                                                                                                                                                                          000000049970DB109485010250            
3454102510036931UNIONBANK 00000INT         UB27542  031925022451CHUA REYES JOHN BILL                                                                                06611248340331                                    162857                                                                                                                                                                                                                                                                                                                                                                                                          000000020062DB109674603436            
3454102510036931UNIONBANK 00000INT         UB30527  031925023619MELODY P SORIA                                                                                      06626788090331                                    250635                                                                                                                                                                                                                                                                                                                                                                                                          000000020062DB109861237500            
3454102510036931UNIONBANK 00000INT         UB39388  031925032335ACCOUNTS PAYABLE-MERCHANT (STRAIGHT)                                                                06112119700331                                    226102120150                                                                                                                                                                                                                                                                                                                                                                                                    000000080000DB322505040444            
3454102510036931UNIONBANK 00000INT         UB54179  031925045655ACCOUNTS PAYABLE-MERCHANT (STRAIGHT)                                                                06122613780405                                    039842                                                                                                                                                                                                                                                                                                                                                                                                          000000097760DB322505040444            
3454102510036931UNIONBANK 00000INT         UB54234  031925045716ACCOUNTS PAYABLE-MERCHANT (STRAIGHT)                                                                06613346180331                                    194702                                                                                                                                                                                                                                                                                                                                                                                                          000000025077DB322505040444            
3454102510036931UNIONBANK 00000INT         UB54241  031925045719RANDY JR G SALAZAR                                                                                  06281104040402                                    066878                                                                                                                                                                                                                                                                                                                                                                                                          000000049272DB109704554598            
3454102510036931UNIONBANK 00000INT         UB54733  031925050100MARICAR ONAN                                                                                        06169240370331                                    175                                                                                                                                                                                                                                                                                                                                                                                                             000000237028DB109355549013            
3454102510036931UNIONBANK 00000INT         UB56029  031925050646ACCOUNTS PAYABLE-MERCHANT (STRAIGHT)                                                                01001515560321                                    15172                                                                                                                                                                                                                                                                                                                                                                                                           000000055160DB322505040444            
3454102510036931UNIONBANK 00000INT         UB56537  031925051042JB HERITAGE REALTY                                                                                  06610559800331                                    193189                                                                                                                                                                                                                                                                                                                                                                                                          000000112753DB002710007193            
3454102510036931UNIONBANK 00000INT         UB57688  031925051338JB HERITAGE REALTY                                                                                  06610605930331                                    193557                                                                                                                                                                                                                                                                                                                                                                                                          000000506214DB002710007193            
3454102510036931UNIONBANK 00000INT         UB58437  031925051651JB HERITAGE REALTY                                                                                  06610560060331                                    193191                                                                                                                                                                                                                                                                                                                                                                                                          000000348894DB002710007193            
3454102510036931UNIONBANK 00000INT         UB70815  031925060607ACCOUNTS PAYABLE-MERCHANT (STRAIGHT)                                                                01001569220321                                    15671                                                                                                                                                                                                                                                                                                                                                                                                           000000038400DB322505040444            
3454102510036931UNIONBANK 00000INT         UB72158  031925060933ACCOUNTS PAYABLE-MERCHANT (STRAIGHT)                                                                01001564770321                                    15634                                                                                                                                                                                                                                                                                                                                                                                                           000000038400DB322505040444            
3454102510036931UNIONBANK 00000INT         UB72491  031925061047AP-MERCHANT (STRAIGHT)                                                                              06164485450331                                    165                                                                                                                                                                                                                                                                                                                                                                                                             000000153622DB322505040342            
3454102510036931UNIONBANK 00000INT         UB72809  031925061123GLEN M CATACUTAN                                                                                    05304481070331                                    508698                                                                                                                                                                                                                                                                                                                                                                                                          000000073100DB109646138560            
3454102510036931UNIONBANK 00000INT         UB73361  031925061232ACCOUNTS PAYABLE-MERCHANT (STRAIGHT)                                                                01001565230321                                    15637                                                                                                                                                                                                                                                                                                                                                                                                           000000042590DB322505040444            
3454102510036931UNIONBANK 00000INT         UB74310  031925061600ARIS PARAS DIMALANTA                                                                                00103616850325                                    45772                                                                                                                                                                                                                                                                                                                                                                                                           000000030000DB109651830564            
3454102510036931UNIONBANK 00000INT         UB75740  031925061956PRECIOUS ANNE ALVARAN LLASOS                                                                        06331988880331                                    18471                                                                                                                                                                                                                                                                                                                                                                                                           000000029154DB109661285870            
3454102510036931UNIONBANK 00000INT         UB77831  031925062506ACCOUNTS PAYABLE-MERCHANT (STRAIGHT)                                                                06210393480331                                    010752                                                                                                                                                                                                                                                                                                                                                                                                          000000044043DB322505040444            
3454102510036931UNIONBANK 00000INT         UB78205  031925062612CATHERINE TEJERO DE VENECIA                                                                         00106168370325                                    72737                                                                                                                                                                                                                                                                                                                                                                                                           000000058829DB109662672148            
3454102510036931UNIONBANK 00000INT         UB80091  031925063027STEPHANIE MARIE BARRIOS DEUDA                                                                       06618444380331                                    129906                                                                                                                                                                                                                                                                                                                                                                                                          000000032122DB109657515553            
3454102510036931UNIONBANK 00000INT         UB80320  031925063102ACCOUNTS PAYABLE-MERCHANT (STRAIGHT)                                                                06124530130406                                    39427                                                                                                                                                                                                                                                                                                                                                                                                           000000058440DB322505040444            
3454102510036931UNIONBANK 00000INT         UB81264  031925063235ACCOUNTS PAYABLE-MERCHANT (STRAIGHT)                                                                06372825140329                                    012409                                                                                                                                                                                                                                                                                                                                                                                                          000000118608DB322505040444            
3454102510036931UNIONBANK 00000INT         UB80723  031925063350OLIVIA PESAYCO                                                                                      06376252410326                                    15388                                                                                                                                                                                                                                                                                                                                                                                                           000000025648DB109355014682            
3454102510036931UNIONBANK 00000INT         UB82890  031925063556MELISSA M LARGUEZA                                                                                  00040329420324                                    38104                                                                                                                                                                                                                                                                                                                                                                                                           000000087948DB102370016771            
3454102510036931UNIONBANK 00000INT         UB84434  031925064007ACCOUNTS PAYABLE-MERCHANT (STRAIGHT)                                                                00039512510321                                    50570                                                                                                                                                                                                                                                                                                                                                                                                           000000033625DB322505040444            
3454102510036931UNIONBANK 00000INT         UB86834  031925064527ESPERANZA V TOLENTINO                                                                               06028348040320                                    75744                                                                                                                                                                                                                                                                                                                                                                                                           000000065649DB109565284400            
3454102510036931UNIONBANK 00000INT         UB86861  031925064536ACCOUNTS PAYABLE-MERCHANT (STRAIGHT)                                                                06470669540408                                    009330                                                                                                                                                                                                                                                                                                                                                                                                          000000024597DB322505040444            
3454102510036931UNIONBANK 00000INT         UB87297  031925064702ACCOUNTS PAYABLE-MERCHANT (STRAIGHT)                                                                00104378000324                                    61128                                                                                                                                                                                                                                                                                                                                                                                                           000000058042DB322505040444            
3454102510036931UNIONBANK 00000INT         UB89714  031925065348MA BUENAFE RAMOS                                                                                    06121074680321                                    282701200245                                                                                                                                                                                                                                                                                                                                                                                                    000000044310DB109421014926            
3454102510036931UNIONBANK 00000INT         UB94164  031925070442ACCOUNTS PAYABLE-MERCHANT (STRAIGHT)                                                                06813517550406                                    074258                                                                                                                                                                                                                                                                                                                                                                                                          000000036260DB322505040444            
3454102510036931UNIONBANK 00000INT         UB94405  031925070523FELISA MAE VILLANUEVA                                                                               06133828290331                                    004282                                                                                                                                                                                                                                                                                                                                                                                                          000000024097DB109430295370            
3454102510036931UNIONBANK 00000INT         UB103542 031925072431KATHLEEN MAE SORIMA ANDRES                                                                          06350330370402                                    010436                                                                                                                                                                                                                                                                                                                                                                                                          000000140335DB109663550956            
3454102510036931UNIONBANK 00000INT         UB104791 031925072643EMMANUEL P ABELLA                                                                                   06511035320331                                    039535                                                                                                                                                                                                                                                                                                                                                                                                          000000064480DB102600023664            
3454102510036931UNIONBANK 00000INT         UB105420 031925072831ACCOUNTS PAYABLE-MERCHANT (STRAIGHT)                                                                06110974770331                                    026192                                                                                                                                                                                                                                                                                                                                                                                                          000000056525DB322505040444            
3454102510036931UNIONBANK 00000INT         UB108427 031925073339ACCOUNTS PAYABLE-MERCHANT (STRAIGHT)                                                                06165652740331                                    48                                                                                                                                                                                                                                                                                                                                                                                                              000000146358DB322505040444            
3454102510036931UNIONBANK 00000INT         UB108838 031925073437MARYANN DELOS REYES DE VERA                                                                         06120469810324                                    039713                                                                                                                                                                                                                                                                                                                                                                                                          000000019700DB109663287704            
3454102510036931UNIONBANK 00000INT         UB113247 031925074311LIMUEL C CIRINEO                                                                                    06510426730331                                    039819                                                                                                                                                                                                                                                                                                                                                                                                          000000157600DB109574552728            
3454102510036931UNIONBANK 00000INT         UB113991 031925074506ERWIN ASEJO SILAO                                                                                   06612628380331                                    195330                                                                                                                                                                                                                                                                                                                                                                                                          000000034535DB109655058230            
3454102510036931UNIONBANK 00000INT         UB114560 031925074527LIMUEL C CIRINEO                                                                                    06512245850331                                    039925                                                                                                                                                                                                                                                                                                                                                                                                          000000045080DB109574552728            
3454102510036931UNIONBANK 00000INT         UB115338 031925074716LIMUEL C CIRINEO                                                                                    06512245770331                                    039924                                                                                                                                                                                                                                                                                                                                                                                                          000000021400DB109574552728            
3454102510036931UNIONBANK 00000INT         UB115702 031925074817AUMI MANANSALA                                                                                      06616386090331                                    206575                                                                                                                                                                                                                                                                                                                                                                                                          000000020062DB109667261771            
3454102510036931UNIONBANK 00000INT         UB117681 031925075218KARLO EMMANUEL LIM PANAHON                                                                          00007969800325                                    86194                                                                                                                                                                                                                                                                                                                                                                                                           000000079800DB109659444471            
3454102510036931UNIONBANK 00000INT         UB120438 031925075702ACCOUNTS PAYABLE-MERCHANT (STRAIGHT)                                                                06375864400329                                    12634                                                                                                                                                                                                                                                                                                                                                                                                           000000036848DB322505040444            
3454102510036931UNIONBANK 00000INT         UB124117 031925080328ACCOUNTS PAYABLE-MERCHANT (STRAIGHT)                                                                06081388500331                                    283801200201                                                                                                                                                                                                                                                                                                                                                                                                    000000042343DB322505040444            
3454102510036931UNIONBANK 00000INT         UB124752 031925080450AP-MERCHANT (STRAIGHT)                                                                              06822015790331                                    022865                                                                                                                                                                                                                                                                                                                                                                                                          000000128680DB322505040342            
3454102510036931UNIONBANK 00000INT         UB125008 031925080523ERA GRACE GABINETE ABDULHAMID                                                                       06052566660331                                    63043186                                                                                                                                                                                                                                                                                                                                                                                                        000000034298DB109327652748            
3454102510036931UNIONBANK 00000INT         UB131391 031925081511ELAINE ROSE MONTEZA                                                                                 06687793560329                                    085077                                                                                                                                                                                                                                                                                                                                                                                                          000000057304DB109429187872            
3454102510036931UNIONBANK 00000INT         UB132113 031925081635ACCOUNTS PAYABLE-MERCHANT (STRAIGHT)                                                                06282647110405                                    066917                                                                                                                                                                                                                                                                                                                                                                                                          000000020147DB322505040444            
3454102510036931UNIONBANK 00000INT         UB134060 031925081915ACCOUNTS PAYABLE-MERCHANT (STRAIGHT)                                                                00106035300325                                    72558                                                                                                                                                                                                                                                                                                                                                                                                           000000099625DB322505040444            
3454102510036931UNIONBANK 00000INT         UB134978 031925082034HAZEL FELICIANO                                                                                     06243318720331                                    030170                                                                                                                                                                                                                                                                                                                                                                                                          000000025000DB109660244081            
3454102510036931UNIONBANK 00000INT         UB137912 031925082441AMOR ANIBAN GOMEZ                                                                                   06683943140325                                    084778                                                                                                                                                                                                                                                                                                                                                                                                          000000038707DB109852689329            
3454102510036931UNIONBANK 00000INT         UB141855 031925083003WELLTHY SOLUTIONS INC                                                                               06262018791226                                    041840                                                                                                                                                                                                                                                                                                                                                                                                          000000021885DB001960002743            
3454102510036931UNIONBANK 00000INT         UB142937 031925083106ACCOUNTS PAYABLE-MERCHANT (STRAIGHT)                                                                06430624310331                                    023408                                                                                                                                                                                                                                                                                                                                                                                                          000000130033DB322505040444            
3454102510036931UNIONBANK 00000INT         UB153296 031925084343AJI MIRANDA MANDAL                                                                                  00040473380321                                    26732                                                                                                                                                                                                                                                                                                                                                                                                           000000031200DB109662557244            
3454102510036931UNIONBANK 00000INT         UB153915 031925084358KIMBERLY C MARZADO                                                                                  06471222260410                                    009322                                                                                                                                                                                                                                                                                                                                                                                                          000000039480DB109895710584            
3454102510036931UNIONBANK 00000INT         UB162811 031925085457STEPHANIE ALCOBENDAS VILLAFUERTE                                                                    01007908500321                                    58867                                                                                                                                                                                                                                                                                                                                                                                                           000000044814DB109326953161            
3454102510036931UNIONBANK 00000INT         UB162636 031925085511Cristina S Olmedillo                                                                                06510520080331                                    039762                                                                                                                                                                                                                                                                                                                                                                                                          000000324244DB109453606740            
3454102510036931UNIONBANK 00000INT         UB165213 031925085816GARY JAY GAMAS MARCO                                                                                01001487330321                                    7275249                                                                                                                                                                                                                                                                                                                                                                                                         000000127571DB109326307595            
3454102510036931UNIONBANK 00000INT         UB165640 031925085856ACCOUNTS PAYABLE-MERCHANT (STRAIGHT)                                                                06121178460406                                    039980                                                                                                                                                                                                                                                                                                                                                                                                          000000031803DB322505040444            
3454102510036931UNIONBANK 00000INT         UB167812 031925090210BABY PATRICIA A FLANDEZ                                                                             01004354140321                                    30843                                                                                                                                                                                                                                                                                                                                                                                                           000000126139DB100590283071            
3454102510036931UNIONBANK 00000INT         UB169220 031925090319LOU ALVIN PEREZ GABI                                                                                06111928010331                                    026247                                                                                                                                                                                                                                                                                                                                                                                                          000000195105DB109661746215            
3454102510036931UNIONBANK 00000INT         UB170245 031925090430ANDREA NICOLE M ROMULO                                                                              06512358890331                                    040187                                                                                                                                                                                                                                                                                                                                                                                                          000000025280DB109351115780            
3454102510036931UNIONBANK 00000INT         UB171929 031925090624ACCOUNTS PAYABLE-MERCHANT (STRAIGHT)                                                                06813993160407                                    37617                                                                                                                                                                                                                                                                                                                                                                                                           000000065940DB322505040444            
3454102510036931UNIONBANK 00000INT         UB171562 031925090701BETSY ROSE AW TAN OR SIDNEY JEFFERSON LUI TAN                                                       06818555910411                                    76678                                                                                                                                                                                                                                                                                                                                                                                                           000000182000DB002610026311            
3454102510036931UNIONBANK 00000INT         UB177102 031925091151JESSICA AQUINO DE VERA                                                                              06450895820403                                    009965                                                                                                                                                                                                                                                                                                                                                                                                          000000062240DB109672190734            
3454102510036931UNIONBANK 00000INT         UB178528 031925091322LAZARINE CONDEZ BACULI                                                                              06124687890407                                    40250                                                                                                                                                                                                                                                                                                                                                                                                           000000019700DB109429727287            
3454102510036931UNIONBANK 00000INT         UB177899 031925091350ACCOUNTS PAYABLE-MERCHANT (STRAIGHT)                                                                06320659810406                                    015303                                                                                                                                                                                                                                                                                                                                                                                                          000000057066DB322505040444            
3454102510036931UNIONBANK 00000INT         UB179959 031925091457ACCOUNTS PAYABLE-MERCHANT (STRAIGHT)                                                                00104717820325                                    63870                                                                                                                                                                                                                                                                                                                                                                                                           000000029305DB322505040444            
3454102510036931UNIONBANK 00000INT         UB181143 031925091730ACCOUNTS PAYABLE-MERCHANT (STRAIGHT)                                                                00104425880325                                    61411                                                                                                                                                                                                                                                                                                                                                                                                           000000029305DB322505040444            
3454102510036931UNIONBANK 00000INT         UB186847 031925092248SATURNINO C RIVERO                                                                                  00039859030321                                    26041                                                                                                                                                                                                                                                                                                                                                                                                           000000038500DB102030002640            
3454102510036931UNIONBANK 00000INT         UB192373 031925092848ACCOUNTS PAYABLE-MERCHANT (STRAIGHT)                                                                06121178620406                                    039982                                                                                                                                                                                                                                                                                                                                                                                                          000000044310DB322505040444            
3454102510036931UNIONBANK 00000INT         UB197558 031925093426PINKY T AMMAQUI                                                                                     06263184820331                                    041766                                                                                                                                                                                                                                                                                                                                                                                                          000000019914DB109640408515            
3454102510036931UNIONBANK 00000INT         UB204159 031925094132Ladie Ryn M Salcedo                                                                                 05302345220331                                    490967                                                                                                                                                                                                                                                                                                                                                                                                          000000120000DB102648141454            
3454102510036931UNIONBANK 00000INT         UB204833 031925094202ACCOUNTS PAYABLE-MERCHANT (STRAIGHT)                                                                01003362460321                                    29552                                                                                                                                                                                                                                                                                                                                                                                                           000000092254DB322505040444            
3454102510036931UNIONBANK 00000INT         UB204876 031925094215ACCOUNTS PAYABLE-MERCHANT (STRAIGHT)                                                                06376109020326                                    14238                                                                                                                                                                                                                                                                                                                                                                                                           000000025648DB322505040444            
3454102510036931UNIONBANK 00000INT         UB205231 031925094235ACCOUNTS PAYABLE-MERCHANT (STRAIGHT)                                                                06376149240326                                    14460                                                                                                                                                                                                                                                                                                                                                                                                           000000063056DB322505040444            
3454102510036931UNIONBANK 00000INT         UB205923 031925094336ANGELA MARIE DEL ROSARIO SANTOS                                                                     01001514910521                                    5782306                                                                                                                                                                                                                                                                                                                                                                                                         000000063540DB109660601138            
3454102510036931UNIONBANK 00000INT         UB206053 031925094338JOAN TENEDERO CUTAMORA                                                                              06617985840331                                    127264                                                                                                                                                                                                                                                                                                                                                                                                          000000025077DB109665443407            
3454102510036931UNIONBANK 00000INT         UB206061 031925094341ACCOUNTS PAYABLE-MERCHANT (STRAIGHT)                                                                01001454830321                                    14619                                                                                                                                                                                                                                                                                                                                                                                                           000000065231DB322505040444            
3454102510036931UNIONBANK 00000INT         UB206241 031925094423ACCOUNTS PAYABLE-MERCHANT (STRAIGHT)                                                                06591412710401                                    021442                                                                                                                                                                                                                                                                                                                                                                                                          000000031514DB322505040444            
3454102510036931UNIONBANK 00000INT         UB206829 031925094428ACCOUNTS PAYABLE-MERCHANT (STRAIGHT)                                                                01001455050321                                    14621                                                                                                                                                                                                                                                                                                                                                                                                           000000020276DB322505040444            
3454102510036931UNIONBANK 00000INT         UB209167 031925094727ACCOUNTS PAYABLE-MERCHANT (STRAIGHT)                                                                00104173890325                                    62542                                                                                                                                                                                                                                                                                                                                                                                                           000000089798DB322505040444            
3454102510036931UNIONBANK 00000INT         UB209937 031925094745ACCOUNTS PAYABLE-MERCHANT (STRAIGHT)                                                                06285195070411                                    067023                                                                                                                                                                                                                                                                                                                                                                                                          000000070915DB322505040444            
3454102510036931UNIONBANK 00000INT         UB211698 031925094914ACCOUNTS PAYABLE-MERCHANT (STRAIGHT)                                                                00105914430325                                    72588                                                                                                                                                                                                                                                                                                                                                                                                           000000082335DB322505040444            
3454102510036931UNIONBANK 00000INT         UB215323 031925095334JENEROSA MANALO CARINO                                                                              06511995990331                                    039645                                                                                                                                                                                                                                                                                                                                                                                                          000000021400DB109350665576            
3454102510036931UNIONBANK 00000INT         UB216057 031925095410CHRISTOPHER DEJUCOS PITOY                                                                           06619556550331                                    148629                                                                                                                                                                                                                                                                                                                                                                                                          000000015000DB109662483686            
3454102510036931UNIONBANK 00000INT         UB215555 031925095429ACCOUNTS PAYABLE-MERCHANT (STRAIGHT)                                                                06430279380331                                    023479                                                                                                                                                                                                                                                                                                                                                                                                          000000086200DB322505040444            
3454102510036931UNIONBANK 00000INT         UB218999 031925095741ACCOUNTS PAYABLE-MERCHANT (STRAIGHT)                                                                06240672610331                                    006116                                                                                                                                                                                                                                                                                                                                                                                                          000000049400DB322505040444            
3454102510036931UNIONBANK 00000INT         UB220898 031925095941ACCOUNTS PAYABLE-MERCHANT (STRAIGHT)                                                                06616523770331                                    173089                                                                                                                                                                                                                                                                                                                                                                                                          000001450000DB322505040444            
3454102510036931UNIONBANK 00000INT         UB222489 031925100139ACCOUNTS PAYABLE-MERCHANT (STRAIGHT)                                                                06495510350416                                    54051                                                                                                                                                                                                                                                                                                                                                                                                           000000044178DB322505040444            
3454102510036931UNIONBANK 00000INT         UB225103 031925100445ACCOUNTS PAYABLE-MERCHANT (STRAIGHT)                                                                06166901330331                                    177                                                                                                                                                                                                                                                                                                                                                                                                             000000060349DB322505040444            
3454102510036931UNIONBANK 00000INT         UB225727 031925100505GERRY GUMAHIN OLIVAREZ                                                                              06031999590331                                    010008                                                                                                                                                                                                                                                                                                                                                                                                          000000056200DB109431113310            
3454102510036931UNIONBANK 00000INT         UB228612 031925100826LANCE MAVERICK MASUNGSONG TABUYAN                                                                   06622626100331                                    209277                                                                                                                                                                                                                                                                                                                                                                                                          000000047437DB109326873423            
3454102510036931UNIONBANK 00000INT         UB228253 031925100831ACCOUNTS PAYABLE-MERCHANT (STRAIGHT)                                                                06493369320412                                    30664                                                                                                                                                                                                                                                                                                                                                                                                           000000045685DB322505040444            
3454102510036931UNIONBANK 00000INT         UB233622 031925101456LESLIE VILLANUEVA LETEGIO                                                                           06512539330331                                    41294                                                                                                                                                                                                                                                                                                                                                                                                           000000049360DB109663541177            
3454102510036931UNIONBANK 00000INT         UB233565 031925101643REGINA BANANIA                                                                                      00040450840321                                    65068                                                                                                                                                                                                                                                                                                                                                                                                           000000033705DB109420516040            
3454102510036931UNIONBANK 00000INT         UB234467 031925101700CECILIA J FRANCISCO                                                                                 06820270130331                                    023182                                                                                                                                                                                                                                                                                                                                                                                                          000000017972DB109561880487            
3454102510036931UNIONBANK 00000INT         UB236441 031925101830ACCOUNTS PAYABLE-MERCHANT (STRAIGHT)                                                                06135681670331                                    5168                                                                                                                                                                                                                                                                                                                                                                                                            000000049795DB322505040444            
3454102510036931UNIONBANK 00000INT         UB237718 031925101938CARREN MONIQUE V FRANCISCO                                                                          06330890430331                                    018028                                                                                                                                                                                                                                                                                                                                                                                                          000000091795DB109882516115            
3454102510036931UNIONBANK 00000INT         UB238332 031925102034AP-MERCHANT (STRAIGHT)                                                                              00104484891225                                    65241                                                                                                                                                                                                                                                                                                                                                                                                           000000144782DB322505040342            
3454102510036931UNIONBANK 00000INT         UB238654 031925102111LESLIE VILLANUEVA LETEGIO                                                                           06510410650331                                    039612                                                                                                                                                                                                                                                                                                                                                                                                          000000025280DB109663541177            
3454102510036931UNIONBANK 00000INT         UB239704 031925102201CECILIA J FRANCISCO                                                                                 06820270210331                                    023183                                                                                                                                                                                                                                                                                                                                                                                                          000000013940DB109561880487            
3454102510036931UNIONBANK 00000INT         UB240758 031925102313LESLIE VILLANUEVA LETEGIO                                                                           06510416690331                                    039661                                                                                                                                                                                                                                                                                                                                                                                                          000000025280DB109663541177            
3454102510036931UNIONBANK 00000INT         UB242953 031925102529ACCOUNTS PAYABLE-MERCHANT (STRAIGHT)                                                                06133393460331                                    004378                                                                                                                                                                                                                                                                                                                                                                                                          000000175329DB322505040444            
3454102510036931UNIONBANK 00000INT         UB244260 031925102657KIMBERLY MAE R CAMBA                                                                                06246789610331                                    61722                                                                                                                                                                                                                                                                                                                                                                                                           000000121500DB109453924712            
3454102510036931UNIONBANK 00000INT         UB244286 031925102659CECILIA J FRANCISCO                                                                                 06820270480331                                    023184                                                                                                                                                                                                                                                                                                                                                                                                          000000013940DB109561880487            
3454102510036931UNIONBANK 00000INT         UB254668 031925103732ACCOUNTS PAYABLE-MERCHANT (STRAIGHT)                                                                06124447310327                                    039666                                                                                                                                                                                                                                                                                                                                                                                                          000000067860DB322505040444            
3454102510036931UNIONBANK 00000INT         UB270737 031925104730MARILEN VALENCIA SANTOS                                                                             01007669680325                                    55600                                                                                                                                                                                                                                                                                                                                                                                                           000000028139DB109651974756            
3454102510036931UNIONBANK 00000INT         UB271324 031925104749IDA JAMINE DOFELIZ VECINO                                                                           06683128730325                                    084797                                                                                                                                                                                                                                                                                                                                                                                                          000000047185DB109326057860            
3454102510036931UNIONBANK 00000INT         UB271448 031925104802SHEENA MAY FELIPE BOOC                                                                              00039110120321                                    35234                                                                                                                                                                                                                                                                                                                                                                                                           000000042004DB109667191975            
3454102510036931UNIONBANK 00000INT         UB274597 031925105104RONNIE ARIVE ABIERA                                                                                 06821317240331                                    023030                                                                                                                                                                                                                                                                                                                                                                                                          000000013940DB109321630200            
3454102510036931UNIONBANK 00000INT         UB276042 031925105252NORIEL LABASO BANDAY                                                                                06615466580331                                    197531                                                                                                                                                                                                                                                                                                                                                                                                          000000044100DB109660383408            
3454102510036931UNIONBANK 00000INT         UB281264 031925105850RUBY LYN GIGANTONE PAJE                                                                             06626776080331                                    250529                                                                                                                                                                                                                                                                                                                                                                                                          000000027615DB109324491043            
3454102510036931UNIONBANK 00000INT         UB283959 031925110142MARIE CONSTANCE Y GONZALEZ                                                                          06511133920331                                    039668                                                                                                                                                                                                                                                                                                                                                                                                          000000062100DB001940006767            
3454102510036931UNIONBANK 00000INT         UB294844 031925111332MARIA LOURDES MASANGKAY ALORRO                                                                      06511087470331                                    039652                                                                                                                                                                                                                                                                                                                                                                                                          000000141580DB101708032765            
3454102510036931UNIONBANK 00000INT         UB295874 031925111432RHIAN JOY DAVID YANGA                                                                               06816237470412                                    074228                                                                                                                                                                                                                                                                                                                                                                                                          000000102200DB109328759446            
3454102510036931UNIONBANK 00000INT         UB298153 031925111725MARIE CONSTANCE Y GONZALEZ                                                                          06512488830331                                    40812                                                                                                                                                                                                                                                                                                                                                                                                           000000021400DB001940006767            
3454102510036931UNIONBANK 00000INT         UB298222 031925111737ACCOUNTS PAYABLE-MERCHANT (STRAIGHT)                                                                06243475660331                                    031596                                                                                                                                                                                                                                                                                                                                                                                                          000000022432DB322505040444            
3454102510036931UNIONBANK 00000INT         UB299771 031925111904RITCHEL CERBO QUIMSON                                                                               06612902890331                                    198626                                                                                                                                                                                                                                                                                                                                                                                                          000000083076DB109661758606            
3454102510036931UNIONBANK 00000INT         UB301038 031925112030VIRGILIO SAN JUAN DEDELES                                                                           06244588050331                                    041709                                                                                                                                                                                                                                                                                                                                                                                                          000000000001DB109321377077            
3454102510036931UNIONBANK 00000INT         UB304631 031925112453ACCOUNTS PAYABLE-MERCHANT (STRAIGHT)                                                                06245112930331                                    046481                                                                                                                                                                                                                                                                                                                                                                                                          000000099709DB322505040444            
3454102510036931UNIONBANK 00000INT         UB305752 031925112553ACCOUNTS PAYABLE-MERCHANT (STRAIGHT)                                                                06247535210331                                    67448                                                                                                                                                                                                                                                                                                                                                                                                           000000045815DB322505040444            
3454102510036931UNIONBANK 00000INT         UB306188 031925112603ACCOUNTS PAYABLE-MERCHANT (STRAIGHT)                                                                06174994530331                                    133071                                                                                                                                                                                                                                                                                                                                                                                                          000000085400DB322505040444            
3454102510036931UNIONBANK 00000INT         UB305919 031925112631MARIE CONSTANCE Y GONZALEZ                                                                          06511133170331                                    039749                                                                                                                                                                                                                                                                                                                                                                                                          000000034551DB001940006767            
3454102510036931UNIONBANK 00000INT         UB308532 031925112835Robert I Cudo                                                                                       06610049600331                                    163770                                                                                                                                                                                                                                                                                                                                                                                                          000000020263DB109453727165            
3454102510036931UNIONBANK 00000INT         UB309698 031925112949JOPO GIAN POLICARPIO DELLORO                                                                        06610060840331                                    164760                                                                                                                                                                                                                                                                                                                                                                                                          000000020062DB109487691786            
3454102510036931UNIONBANK 00000INT         UB311946 031925113245MARILYN C GOMEZ                                                                                     06493220280411                                    29307                                                                                                                                                                                                                                                                                                                                                                                                           000000031356DB109567435301            
3454102510036931UNIONBANK 00000INT         UB312590 031925113306CHRISTOPHER R DELLOSA                                                                               06246181950331                                    56198                                                                                                                                                                                                                                                                                                                                                                                                           000000061398DB109893961668            
3454102510036931UNIONBANK 00000INT         UB314129 031925113449ACCOUNTS PAYABLE-MERCHANT (STRAIGHT)                                                                00039018230324                                    40795                                                                                                                                                                                                                                                                                                                                                                                                           000000272801DB322505040444            
3454102510036931UNIONBANK 00000INT         UB315029 031925113532ACCOUNTS PAYABLE-MERCHANT (STRAIGHT)                                                                06287868150405                                    69679                                                                                                                                                                                                                                                                                                                                                                                                           000000020147DB322505040444            
3454102510036931UNIONBANK 00000INT         UB314702 031925113620ACCOUNTS PAYABLE-MERCHANT (STRAIGHT)                                                                05100958020405                                    041825                                                                                                                                                                                                                                                                                                                                                                                                          000000092654DB322505040444            
3454102510036931UNIONBANK 00000INT         UB317377 031925113841ANDREYA MATIC                                                                                       06625219340331                                    238473                                                                                                                                                                                                                                                                                                                                                                                                          000000057400DB109424588900            
3454102510036931UNIONBANK 00000INT         UB318401 031925113937RENALYN O BALAGTAS                                                                                  06372586050326                                    012438                                                                                                                                                                                                                                                                                                                                                                                                          000001341536DB109642835408            
3454102510036931UNIONBANK 00000INT         UB320185 031925114210ACCOUNTS PAYABLE-MERCHANT (STRAIGHT)                                                                06283038570407                                    066957                                                                                                                                                                                                                                                                                                                                                                                                          000000056169DB322505040444            
3454102510036931UNIONBANK 00000INT         UB324160 031925114617KEITH MARTIN MOCORRO                                                                                05701505910410                                    017502                                                                                                                                                                                                                                                                                                                                                                                                          000000112500DB109428863066            
3454102510036931UNIONBANK 00000INT         UB326994 031925114956ANGELICA D REY                                                                                      06371380220326                                    012413                                                                                                                                                                                                                                                                                                                                                                                                          000001707104DB109888343735            
3454102510036931UNIONBANK 00000INT         UB327987 031925115127ACCOUNTS PAYABLE-MERCHANT (STRAIGHT)                                                                06282850420405                                    067025                                                                                                                                                                                                                                                                                                                                                                                                          000000020147DB322505040444            
3454102510036931UNIONBANK 00000INT         UB328346 031925115219JESSICA LIBUTON DELOS SANTOS                                                                        06551748170409                                    031247                                                                                                                                                                                                                                                                                                                                                                                                          000000035482DB109661189788            
3454102510036931UNIONBANK 00000INT         UB329684 031925115242ACCOUNTS PAYABLE-MERCHANT (STRAIGHT)                                                                06282995310407                                    066913                                                                                                                                                                                                                                                                                                                                                                                                          000000033203DB322505040444            
3454102510036931UNIONBANK 00000INT         UB330101 031925115317JONATHAN PANAY EVANGELISTA                                                                          06121377660326                                    039856                                                                                                                                                                                                                                                                                                                                                                                                          000000035620DB109914462846            
3454102510036931UNIONBANK 00000INT         UB330604 031925115406ACCOUNTS PAYABLE-MERCHANT (STRAIGHT)                                                                06282871850407                                    066973                                                                                                                                                                                                                                                                                                                                                                                                          000000020147DB322505040444            
3454102510036931UNIONBANK 00000INT         UB331974 031925115539ACCOUNTS PAYABLE-MERCHANT (STRAIGHT)                                                                06283016330407                                    066916                                                                                                                                                                                                                                                                                                                                                                                                          000000020147DB322505040444            
3454102510036931UNIONBANK 00000INT         UB333772 031925115717ACCOUNTS PAYABLE-MERCHANT (STRAIGHT)                                                                06282865370407                                    066915                                                                                                                                                                                                                                                                                                                                                                                                          000000020147DB322505040444            
